:0400000002004B327D
:01000B0032C2
:0100130032BA
:01001B0032B2
:0300230002039F36
:01002B0032A2
:01003300329A
:01003B003292
:0300430002036055
:0D00A400E4F508F509F50AF50BF50CF50D6E
:0301AD0002004607
:0300460002024370
:1001B000E582FF24FC500122EF2F9001BE738006E0
:1001C0008021803C8057AF6C8FF005F07401800275
:1001D00025E0D5F0FBF4FFAE925EF592AE93EF5EB4
:1001E000F59322AF6C8FF005F07401800225E0D505
:1001F000F0FBFFF4AD925DF592AE93EF4EF59322D6
:10020000AF6C8FF005F07401800225E0D5F0FBFFA4
:10021000AE924EF592EFF4AE935EF59322AF6C8FF3
:10022000F005F07401800225E0D5F0FBFFAE924EA0
:10023000F592AE93EF4EF593225392CF5393CF4363
:100240009144221202391204D212047E756C007598
:1002500082031201B0756C017582031201B0D2B332
:10026000D2B4439608439708439610439710D29709
:10027000D290109802800685998212060F12066DA0
:100280001207A40508E4B5080C0509B50907050A15
:10029000B50A02050B109802800685998212060F96
:1002A0007401B52F14E50C7010C290C297750C0143
:1002B000E4F508F509F50AF50B7401B50C2574A0F1
:1002C000B508107486B5090B7401B50A0614B50B90
:1002D000028002800ED290750C02E4F508F509F553
:1002E0000AF50B7403B50C227440B5080E749CB566
:1002F0000909E4B50A05B50B028002800DD290E42D
:10030000F50CF508F509F50AF50B7404B50C237422
:1003100040B5080E749CB50909E4B50A05B50B0291
:100320008002800EC290750C03E4F508F509F50A09
:10033000F50B7402B50C028003020272E4B5080FDB
:10034000B50B0C7435B50907740CB50A02800302AD
:100350000272D297750C00750D01752F00020272A2
:10036000C020C0E0C0F0C082C083C007C006C00586
:10037000C004C003C002C001C000C0D075D00012CC
:100380000C04D0D0D000D001D002D003D004D005CE
:10039000D006D007D083D082D0F0D0E0D02032C0B9
:1003A00020C0E0C0F0C082C083C007C006C005C046
:1003B00004C003C002C001C000C0D075D000120C40
:1003C00004D0D0D000D001D002D003D004D005D0CA
:1003D00006D007D083D082D0F0D0E0D0203275E1B3
:1003E0000075E2069000641204B4C2AF02380080C7
:1003F000FE75A15575A1AA74F855B9FF4307068F7C
:10040000B975A10022C2EA75E20075EC0053EAF367
:1004100075DC0275EE0A53EAEFAEEA4306408EEA57
:1004200075D21275E44A53EBFEAEEB4306048EEB35
:10043000AEEB4306088EEB75D41275D8FF75E10755
:10044000D2EA75E30075E229AED14306018ED1757B
:10045000D30075D50022C29FD29EC29DC2CDC2CC10
:10046000AE874306808E87740F5589FF4307208F20
:100470008943C9A0758DF3D28ED299D29C221203E2
:10048000F19000051204B4120456120405D2AF22F2
:1004900010980280FB8599822285829910990280AA
:1004A000FB22AE82AF83EE4F600905A11EBEFF01A5
:1004B0001F80F322AE82AF83EE4F60159003E8C039
:1004C00007C0061204A2D006D0071EBEFF011F807F
:0204D000E72221
:1000B100752A00753E00753F007540007541007559
:1000C1004200754300752B00752C00752D00752EAF
:1000D10000752F00753000753100753200753312CF
:1000E100753404753500753600753700753800753F
:1000F1003900753A01753B00753C00753D0078B7D4
:10010100760078B8760078B9760078BA760078BB50
:06011100760078BC7600C8
:1004D2009000CAE4F09000CB74E1F09000CCE4F01C
:1004E2009000CDF09000CEF09000CFF09000D0744C
:1004F20008F0229000CAE0FF8F219000CBE0FF8F2E
:10050200229000CCE0FF8F239000CDE0FF8F248566
:10051200216C85226D85236E85246F901C0075F0F9
:100522004E740E120D76AC82AD83AEF0FF8C25EDCB
:10053200C4C525C4540F6525C525540FC525652599
:10054200C525F526EEC454F04526F5268E27EFC4C0
:10055200C527C4540F6527C527540FC5276527C56E
:1005620027F528756C0AE4F56DF56EF56F85258221
:100572008526838527F0E528120CF3AC828C297539
:100582006C0AE4F56DF56EF56F8525828526838507
:1005920027F0E528120D7685822585832685F027AA
:1005A200F52874FB2529501574012525F525E43518
:1005B20026F526E43527F527E43528F528AF25C3A7
:1005C200E49FF58D2275D30074FC55D2FF430702D8
:1005D2008FD22275D50078BAE6600C74FC55D4FF30
:1005E2008FD478BA76002274FC55D4FF4307028F69
:1005F200D478B976002220DE012278BBA6DB78BC53
:10060200760074F355D4FF4307088FD422AF827863
:10061200B7860678B706EE2477F8A60778B7B6400D
:1006220000400478B7760078B779B886F0E7B5F07D
:100632000E78BA760178BAE6600512066D80F62267
:10064200AD82AE83AFF08D828E838FF0120E4BFCA3
:1006520060188C820DBD00010EC007C006C00512D5
:10066200060FD005D006D00780DC22E510700122EB
:10067200AF2A052AEF249B400122752A0078B9E6A9
:1006820060012278B879B786F0E7B5F06478BAE607
:10069200605E78B9760178B886077440C39FFF78A8
:1006A200B8E62477FE8E6C756D00756E408F6F759F
:1006B200700090008A75F000C007120DDBD0077839
:1006C200B7E66021EF248AFFE43400FE7D00756CFA
:1006D200778D6D756E4078B7866F8D708F828E8341
:1006E2008DF0120DDB75D54074FC55D4FF8FD422EA
:1006F2002278B9760178B879B7C3E796505C78B8B2
:1007020086077440C39FFF78B8E62477FE8E6C7527
:100712006D00756E408F6F75700090008A75F000E5
:10072200C007120DDBD00778B7E6602AEF248AFDF6
:10073200E43400FE7C00756C778C6D756E4078B782
:10074200866F8C708D828E838CF0C007120DDBD089
:100752000778B7E62FFF8FD5802A78B779B8E6C336
:1007620097FF78B8E62477FE8E6C756D00756E4043
:100772008F6F75700090008A75F000C007120DDB54
:10078200D0078FD578B8EF26F678B8B64000400A81
:1007920078B8860778B8EF24C0F674FC55D4FF8F7A
:1007A200D42278BBE670012278BC860778BC06EFBB
:1007B200244AF582E43400F583E0FFE53F6003025A
:1007C20008448F82C007120499D007BF5E11052B1F
:1007D200E52B24F5500CC0071203DED00780037509
:1007E2002B00BF2518052CE52C24FA5013C2907556
:1007F2000C03E4F508F509F50AF50B8003752C00E6
:10080200E5312432F98706EFB5061E0531740CB5C1
:10081200310C750C04E4F508F509F50AF50BE53120
:1008220024F350087531008003753100BF5510055F
:100832002EE52E24EF500B752F01752E00800375C7
:100842002E008F3E78BB1678BBE6700974F355D440
:06085200FF7E008FD4229E
:100E6B001201100100000008861A2257000102012E
:100E7B00000109024B000201008032080B00020244
:100E8B000201030904000001020201000524001005
:100E9B0001052401000004240202052406000107B9
:100EAB0005810310004009040100020A000000073D
:0D0EBB000502024000000705820240000011
:10085800AF82BF02028022BF03028039BF810280BB
:1008680042BF82028005BF8348801C74BF55D4FFF5
:100878004307038FD475820022747F55D4FF430742
:100888000C8FD47582002274BF55D6FF4307038F9F
:10089800D675820022747F55D6FF43070C8FD67514
:1008A80082002274BF55D2FF4307038FD27582009E
:1008B800227582FF22AF82BF02028022BF0302801C
:1008C80036BF8102803CBF82028005BF8342801907
:1008D80074BC55D4FF4307028FD475820022747309
:1008E80055D4FF8FD47582002274BC55D6FF4307B8
:1008F800028FD675820022747355D6FF8FD6758203
:10090800002274BC55D2FF4307028FD275820022A1
:040918007582FF22C3
:06011700751400751500CF
:10091C00AFDBBF08028003020B5B900006E0F50F13
:10092C00900007E07006E50F24805003750F7F7F61
:10093C0000900001E0F50E900000E0FE54606003B2
:10094C00020AE0E50E24F55003020ADBE50E240B47
:10095C0083F582E50E240F83F583E473C260DB8399
:10096C00DB3A7EDB43575D0A0A0A0A0A0A090A0ABD
:10097C000A0B900003E0FEBE0102800FBE02028053
:10098C0017BE0302801FBE225B804B75116B751264
:10099C000E7513807E12804E75117D75120E7513B7
:1009AC00807E4B8041900002E0FDBD04005023EDA1
:1009BC002D2416F987040987058C118D1275138067
:1009CC00AB11AC12AD138B828C838DF0120E4BFEDF
:1009DC0080147EFF8010900004E0FEBE02004006F2
:1009EC007EFF80027EFFC3EE950F50028E0F74F8CF
:1009FC00250F50067D087E008004AD0F7E008D070C
:100A0C0085116C85126D85136E8F6F75700090005B
:100A1C000075F000C007120DDBD007E50FC39FF582
:100A2C000FEF2511F511E43512F512020B5D900054
:100A3C0002E0F50F020B5D900000E510F074FF254D
:100A4C000F4003020B5D7F01020B5D900002E0F58D
:100A5C0010020B5D900000E0FE53061F7D00BE02ED
:100A6C0011BD000E900004E0F5821208BDAF8202A9
:100A7C000B5D7FFF020B5D900000E0FE53061F7DB7
:100A8C0000BE022DBD002A900003E0FD7E00900008
:100A9C0002E0FC7B004206EB4205EE4D700E90002E
:100AAC0004E0F582120858AF82020B5D7FFF020B47
:100ABC005D7FFF020B5D900000E4F0900001F0748C
:100ACC00FE250F50057F02020B5DAF0F020B5D7F01
:100ADC00FF020B5D900000E0FE5306607D00BE201F
:100AEC0070BD006D900000E0FE30E7517421B50E32
:100AFC00487511CA75120075130074F8250F50064D
:100B0C007D087E008004AD0F7E008D0785116C85FD
:100B1C00126D85136E8F6F75700090000075F0006C
:100B2C00C007120DDBD007E50FC39FF50FEF2511A2
:100B3C00F511E43512F51280187FFF80147420B57E
:100B4C000E02800D7422B50E0280067FFF80027F9C
:100B5C00FFBFFF07750EFF75DCCF228FDD75DCC084
:100B6C00227405B50E02804A7406B50E5074F82531
:100B7C000F50067E087F008004AE0F7F0085116C3D
:100B8C0085126D85136E8E6F75700090000075F078
:100B9C0000C006120DDBD006E50FC39EF50FEE2547
:100BAC0011F511E43512F5128EDDAEDC6306408EC4
:100BBC00DC22AE0F4306808EE375DC022275DD006D
:100BCC0075DC0222E5DB7420B50E2430DE21756C59
:100BDC0000756D00756E0085DB6F7570009000CA36
:100BEC0075F000120DDB1204F575DD0085DCDCAE52
:070BFC00DC6306808EDC22A1
:10011D007544D075450B75460375470C7548F875D4
:10012D004905754A03754B0C754C03754D0C754E91
:10013D0003754F0C75500375510C75520375530CA7
:10014D0075540375550C75560375570C75586D75AB
:10015D00590B755AC7755B05755CD5755D05755E73
:10016D0003755F0C75600375610C75621C75630911
:10017D0075640375650C75660375670C7568037595
:08018D00690C756A03756B0C27
:100C03002220D903020CCEAED95306307F00BE009A
:100C130005BF0002801CBE1005BF0002803BBE2042
:100C230005BF00028059BE3006BF0003020CA802B4
:100C33000CCCAED953060F7F00EE2EFEEF33EE241D
:100C430044F98706098707C007C0068E828F83127F
:100C53000049D006D007020CCCAED953060F7F0053
:100C6300EE2EFEEF33EE244EF98706098707C00701
:100C7300C0068E828F83120049D006D007804AAE09
:100C8300D953060F7F00EE2EFEEF33EE2458F9877B
:100C930006098707C007C0068E828F83120049D0DA
:100CA30006D0078024AED953060F7F00EE2EFEEF49
:100CB30033EE2462F98706098707C007C0068E82D0
:100CC3008F83120049D006D007C2D930D81575DCFE
:100CD3000275D21075D41275D61275E300C2DAC24A
:100CE300D9C2D810DA0122E5DA20E20375D8FF224F
:100195007516C875170E7518E075190E751A06755A
:0801A5001B0F751CCC751D0E2B
:100EC80004030904140343004800350035003400C6
:100ED80020004300440043002603520069006B00D1
:100EE8006B0061006000730020004300480035007B
:100EF800350034002000440065006D006F001203C7
:100F0800520069006B006B00610030007700300010
:100CF300F9E56C456D456E456F60777800C308E58F
:100D03006F20E73BE56C25E0F56CE56D33F56DE5AC
:100D13006E33F56EE56F33F56FE582956CE583957C
:100D23006DE5F0956EE9956F50D4C3E56F13F56FDC
:100D3300E56E13F56EE56D13F56DE56C13F56CE576
:100D430082956CFCE583956DFDE5F0956EFEE99566
:100D53006F4007F98EF08D838C82C3E56F13F56FB7
:100D6300E56E13F56EE56D13F56DE56C13F56CD853
:100D7300CEE922FB7A20E4FCFDFEFFE5822582F525
:100D830082E58333F583E5F033F5F0EB33FB40176E
:100D9300DAE98042E5822582F582E58333F583E54E
:100DA300F033F5F0EB33FBEC33FCED33FDEE33FEC8
:100DB300EF33FFEC956CED956DEE956EEF956F400F
:100DC30013EC956CFCED956DFDEE956EFEEF956F56
:080DD300FF438201DABEEB22AE
:06007A00E478FFF6D8FD5A
:100DDB00AD82AE83AFF08D718E728F73856C74851F
:100DEB006D75856E76A86FA9708803890418B8FF96
:100DFB000119EB4C60258574828575838576F0121D
:100E0B000E4BFCA38582748583758D828E838FF048
:100E1B00EC120E30A3AD82AE8380CE8571828572CB
:050E2B00838573F02235
:100058007900E94400601B7A00900F18780075A0B9
:1000680001E493F2A308B8000205A0D9F4DAF27506
:02007800A0FFE7
:100E300020F71130F6138883A88220F509F6A883DD
:0B0E40007583002280FEF280F5F02296
:100080007800E84400600A790075A001E4F309D81B
:10009000FC7800E84400600C7900900100E4F0A3D3
:0400A000D8FCD9FAB5
:0F004900E4737581BC120E67E582600302004606
:100E4B0020F71430F6148883A88220F507E6A883D0
:100E5B0075830022E280F7E49322E0227582002260
:00000001FF
