:03000000020006F5
:03005F0002000399
:0300030002006296
:100062001200787592FF7593FF9000641200A2E56A
:1000720090F4F59080F375A15575A1AA74F855B95D
:10008200FF4307058FB975A10022AE82AF83EE4F01
:10009200600D05A105A105A11EBEFF011F80EF2273
:1000A200AE82AF83EE4F60159003E8C007C0061220
:1000B200008CD006D0071EBEFF011F80E722AEC60D
:1000C2004306108EC622C29FD29EC29DC2CDC2CC12
:1000D200AE874306808E87750811750904E4F50A18
:1000E200F50B750D0AF50EF50FF5108508828509D9
:1000F20083850AF0E50B1201D0AC828C0C750D0AD7
:10010200E4F50EF50FF510850882850983850AF05E
:10011200E50B12025385820885830985F00AF50BE7
:1001220074FB250C501574012508F508E43509F512
:1001320009E4350AF50AE4350BF50B740F5589FF0E
:100142004307208F8943C9A0AF08C3E49FF58DD22E
:100152008ED299D29C2210980280FB8599822285A8
:10016200829910990280FB22AE82AF83109902809D
:10017200FB8E998E828F832210980280FBAE997F2C
:10018200008E828F8322AEC64306208EC622C2C74D
:10019200D2C5D2C475C2982210C00280FB85C1822A
:1001A200228582C110C10280FB22AF8275A15575E2
:1001B200A1AAEF600BAEB17F004306018EB18003AE
:1001C20053B1FE75A10075FF00228582FF22F9E579
:1001D2000D450E450F451060777800C308E51020E5
:1001E200E73BE50D25E0F50DE50E33F50EE50F33A2
:1001F200F50FE51033F510E582950DE583950EE5D3
:10020200F0950FE9951050D4C3E51013F510E50FE2
:1002120013F50FE50E13F50EE50D13F50DE58295B9
:100222000DFCE583950EFDE5F0950FFEE995104076
:1002320007F98EF08D838C82C3E51013F510E50F5C
:1002420013F50FE50E13F50EE50D13F50DD8CEE9F6
:1002520022FB7A20E4FCFDFEFFE5822582F582E5A1
:100262008333F583E5F033F5F0EB33FB4017DAE93E
:100272008042E5822582F582E58333F583E5F0331A
:10028200F5F0EB33FBEC33FCED33FDEE33FEEF33F5
:10029200FFEC950DED950EEE950FEF95104013ECDA
:1002A200950DFCED950EFDEE950FFEEF9510FF43BB
:0602B2008201DABEEB221E
:06003500E478FFF6D8FD9F
:100013007900E94400601B7A009002BC780075A067
:1000230000E493F2A308B8000205A0D9F4DAF2754C
:02003300A0FF2C
:10003B007800E84400600A790075A000E4F309D861
:10004B00FC7800E84400600C7900900000E4F0A319
:04005B00D8FCD9FAFA
:0D0006007581101202B8E58260030200034C
:0402B8007582002229
:00000001FF
